S01300004578706572696D656E74322E73726563BE
S11300000C9486000C94A3000C94A3000C94A300FD
S11300100C94A3000C94A3000C94A3000C94A300D0
S11300200C94A3000C94A3000C94A3000C94A300C0
S11300300C94A3000C94A3000C94A3000C94A300B0
S11300400C94A3000C94A3000C94A3000C94A300A0
S11300500C94A3000C94A3000C94A3000C94A30090
S11300600C94A3000C94A3000C94A3000C94A30080
S11300700C94A3000C94A3000C94A3000C94A30070
S11300800C94A3000C94A3000C94A3000C94A30060
S11300900C94A3000C94A3000C94A3000C94A30050
S11300A00C94A3000C94A3000C94A3000C94A30040
S11300B00C94A3000C94A3000C94A3000C94A30030
S11300C00C94A3000C94A3000C94A30041646472E8
S11300D02E204F6666736574202020302020312046
S11300E020322020332020342020352020362020A8
S11300F0372020382020392020412020422020434E
S11301002020442020452020460A0D0011241FBE33
S1130110CFEFD8E0DEBFCDBF11E0A0E0B1E0E6EB69
S1130120F0E102C005900D92AA33B107D9F723E09C
S1130130AAE3B1E001C01D92A939B207E1F70E9418
S113014045010C9459080C940000FC012181622B98
S113015061830895FC012281622B62830895FC016E
S1130160928160956923628308958F929F92AF92E2
S1130170BF92EF92FF920F931F93CF93DF93CDB76C
S1130180DEB72B970FB6F894DEBF0FBECDBF7C0150
S113019080E008C0E1E0F0E0EC0FFD1FE80FF11D86
S11301A010828F5F8B30B0F388248A94982C54018A
S11301B000E0C7010E94B104182F80ED810F8A303E
S11301C068F4612FC7010E94AA04E1E0F0E0EC0F9B
S11301D0FD1FE00FF11D10830F5F2DC0183011F0CB
S11301E01F37A9F40150E1E0F0E0EC0FFD1FE00F30
S11301F0F11D108268E0C7010E94AA0460E2C701F1
S11302000E94AA0468E0C7010E94AA0414C01D3019
S113021021F01A3011F01E3271F4CE0101960E94C1
S113022033054B015C016DE0C7010E94AA046AE03A
S1130230C7010E94AA040A3071F4CE0101960E94FB
S113024033054B015C016DE0C7010E94AA046AE01A
S1130250C7010E94AA048FEF88169806A806B8065C
S113026009F4A7CFC501B4012B960FB6F894DEBFED
S11302700FBECDBFDF91CF911F910F91FF90EF90F3
S1130280BF90AF909F908F90089560E183E290E0DB
S11302900E94A50060E875E288EC90E00E9480046A
S11302A040E85AE166E070E08CE490E00E9453027A
S11302B00E945B030E94B70490938B0380938A038C
S11302C081E191E09F938F9381E091E09F938F93DD
S11302D080918B038F9380918A038F930E946F0583
S11302E040918A0350918B0360E088EC90E00E9477
S11302F0E00460E183E290E00E94AF0088EC90E0CB
S11303000E94B500AB01BC01409392035093930348
S1130310609394037093950381E10E94C3028093D8
S11303208C034AE851E060E072E08CE490E00E94C3
S1130330300480938C034AE851E060E072E088EC7A
S113034090E00E9426020F900F900F900F900F9054
S11303500F90B6CFAF92BF92DF92EF92FF920F93BE
S11303601F93CF93DF938C017B015A010E94B70442
S1130370D82ED92FEA0CFB1CFF92EF9284E291E075
S11303809F938F93DF93DF920E946F054D2D5D2F16
S113039060E0C8010E94E004BF92AF9288E291E05D
S11303A09F938F93DF93DF920E946F054D2D5D2FF6
S11303B060E0C8010E94E0048DB79EB70C960FB6AA
S11303C0F8949EBF0FBE8DBFC0E01BC0F701EC0FB9
S11303D0F11D80811F928F9382E391E09F938F930D
S11303E0DF93DF920E946F054D2D5D2F60E0C80101
S11303F00E94E004CF5F0F900F900F900F900F902A
S11304000F90C03118F3C0E00DC0F701EC0FF11DDF
S1130410608180EE860F803608F06EE2C8010E948B
S1130420AA04CF5FC03188F36DE0C8010E94AA041A
S11304306AE0C8010E94AA04DF91CF911F910F9135
S1130440FF90EF90DF90BF90AF900895CF92DF922E
S1130450EF92FF920F931F93CF93DF938C016B0165
S11304607A010E94B704EC01AC0160E08CEC90E0EE
S11304700E94BA04AE0160E0C8010E94E004C0E03A
S1130480D0E0AE01B701C8010E94AA016096CC1564
S1130490DD05B8F3DF91CF911F910F91FF90EF909D
S11304A0DF90CF900895CF93DF93EC019A01AB01D5
S11304B060E074E284EF90E00E941105223031057F
S11304C028F480E5888381E089832FC024303105B6
S11304D020F480E58883198228C02830310528F467
S11304E081E5888381E0898320C02031310520F4AF
S11304F081E58883198219C02032310528F482E508
S1130500888381E0898311C02034310520F482E599
S1130510888319820AC02038310520F483E5888352
S1130520198203C083E680939803CC34D10559F42F
S113053060E283E290E00E94AA0060E283E290E03D
S11305400E94A5000AC068E083E290E00E94AA002D
S113055068E083E290E00E94A50060E883E290E016
S11305600E94AF0060E883E290E00E94A5008091C1
S11305709803DF91CF910895FC01628391819923BF
S1130580ECF782810895CF92DF92EF92FF92CF939E
S1130590DF93803480F46A017B01D82F8EE6809348
S11305A098036D2F60648CE490E00E94BC028093F9
S11305B09703C0E01EC089E6809398032DC023E012
S11305C030E02C1B3109220F331F220F331F220F5F
S11305D0331FC701B60104C0969587957795679533
S11305E02A95D2F78CE490E00E94BC028093970392
S11305F0CF5FC43020F3DD2321F0D83021F466E846
S113060003C064E901C061E08CE490E00E94BC0294
S11306108093970380919803DF91CF91FF90EF909F
S1130620DF90CF9008950F931F93CF93DF93D82F2C
S11306308B018EE680939803C0E06FEF8CE490E02A
S11306400E94BC0280939703CF5F8F3F11F4C111C6
S1130650F4CFC11104C084E7809398031EC0982F7F
S11306609E7F31F0F801808384E68093980315C05F
S1130670F8018083D23070F410C06FEF8CE490E006
S11306800E94BC0280939703F801EC0FF11D808354
S1130690CF5F01C0C1E0CD1780F36FEF8CE490E031
S11306A00E94BC028093970380919803DF91CF91BD
S11306B01F910F910895CF9360E183E290E00E942F
S11306C0AA00C1E006C06FEF8CE490E00E94BC0277
S11306D0CF5FCB30C0F360E183E290E00E94AF00D3
S11306E040E050E0BA0180E00E94C3026DE873E08C
S11306F085E00E941303809396038E3609F0A0C010
S113070060E183E290E00E94AF004AEA51E060E0D9
S113071070E088E00E94C30280938C038E3639F423
S11307206DE873E085E00E94130380938C0360E11D
S113073083E290E00E94AA0080918D03813009F049
S11307407BC090918C039E3609F076C0813009F00D
S11307506FC0809191038A3A09F06AC060E183E234
S113076090E00E94AF0040E050E0BA018AE30E94AA
S1130770C3026DE873E085E00E94130380938C0349
S113078060E183E290E00E94AA0080918D038130B1
S113079009F062C080918F0382FD03C0857009F463
S11307A05BC060E183E290E00E94AF00C0E040E003
S11307B050E0BA0187E30E94C3026DE873E085E06C
S11307C00E94130380938C0340E050E060E070E4E7
S11307D089E20E94C3026DE873E085E00E9413037E
S11307E080938C03CF5F80918D03882311F0C11116
S11307F0DECF809198038E3679F540E050E0BA015F
S11308008AE30E94C3026DE873E085E00E9413034B
S113081080938C0380918E038823F4F486FF04C0B4
S113082088E68093000118C083E78093000114C018
S113083086E78093960310C089E6809396030CC0E4
S113084080918D03853021F48EE68093960304C055
S113085080918C038093960380919603CF910895A1
S1130860CF92DF92EF92FF920F931F93CF93DF9378
S1130870EC017B016A016FEFCE010E94BC02809300
S113088097038F3FC1F3811132C06FEFCE010E94F5
S1130890BC02809397038F3FC1F38E3F31F50DC0A7
S11308A06FEFCE010E94BC0280939703F601E00F24
S11308B0F11F80830F5F1F4F02C000E010E00E1590
S11308C01F0570F36FEFCE010E94BC028093970363
S11308D06FEFCE010E94BC02809397036FEFCE01AD
S11308E00E94BC028093970302C083E700C0DF919B
S11308F0CF911F910F91FF90EF90DF90CF900895CB
S1130900CF93DF93EC01CB01A0E0B0E0880F991FF7
S1130910AA1FBB1F880F991FAA1FBB1F9C01AD01F3
S1130920220F331F441F551F220F331F441F551F0F
S113093060E074E284EF90E00E94110521503109D7
S11309403D832C83188286E08A8388E18983DF9142
S1130950CF910895FC01908195FFFDCF668380E0DF
S11309600895FC0190819923ECF7868108958AE328
S113097091E00895CF93DF93DC0161111AC0262F13
S113098030E0FD01E20FF31FE491EA01C20FD31F2F
S1130990E8836F5FE111F3CF0FC0292F30E0FD0131
S11309A0E20FF31FE491EA01C20FD31FE8839F5FB4
S11309B001C090E0961788F3862FDF91CF910895B8
S11309C0EF92FF920F931F93CF93DF937C01062F37
S11309D0EA01611115C0688105C0C7010E94AA041B
S11309E0219668816111F9CF15C0FE01E10FF11D57
S11309F017FDFA956081C7010E94AA041F5F01C018
S1130A0010E0202F30E0812F012E000C990B82176B
S1130A1093075CF3DF91CF911F910F91FF90EF90BB
S1130A200895A1E21A2EAA1BBB1BFD010DC0AA1F2B
S1130A30BB1FEE1FFF1FA217B307E407F50720F043
S1130A40A21BB30BE40BF50B661F771F881F991FBE
S1130A501A9469F760957095809590959B01AC0107
S1130A60BD01CF0108951F93FC0199278827BC017C
S1130A70E89411911032E9F3193010F01E30C8F3E4
S1130A801B3251F01D3249F4689406C00E945A0585
S1130A90610F711D811D911D119110531A30B0F316
S1130AA03EF490958095709561957F4F8F4F9F4F41
S1130AB01F910895592F482F372F262F660F771F20
S1130AC0881F991F660F771F881F991F620F731F56
S1130AD0841F951F660F771F881F991F0895AEE026
S1130AE0B0E0E5E7F5E00C9430080D891E8986E056
S1130AF08C831A8309838FEF9FE79E838D83AE01D6
S1130B00475E5F4F6F89788DCE0101960E949105F3
S1130B10EF81F885E00FF11F10822E96E4E00C942B
S1130B204C08ABE0B0E0E7E9F5E00C9422086C0176
S1130B307B018A01FC0117821682838181FFCCC16B
S1130B40CE0101963C01F6019381F70193FD859155
S1130B5093FF81917F01882309F4BAC1853239F466
S1130B6093FD859193FF81917F01853229F4B6012C
S1130B7090E00E948807E7CF912C212C312CFFE1D3
S1130B80F315D8F08B3279F038F4803279F083326F
S1130B90A1F4232D20611DC08D3261F0803369F4EE
S1130BA0232D216016C0832D8260382EE32DE4604E
S1130BB03E2E2AC0F32DF8601DC037FC2DC020ED59
S1130BC0280F2A3040F08E32B9F436FC81C1232D2F
S1130BD02064322E19C036FE06C08AE0989E200D8D
S1130BE01124922E11C0EAE02E9E200D1124222EF3
S1130BF0F32DF0623F2E08C08C3621F4832D8068DB
S1130C00382E02C0883641F4F70193FD859193FF95
S1130C1081917F018111B3CF982F9F7D955493309B
S1130C2028F40C5F1F4F9FE399830DC0833631F086
S1130C30833771F0833509F059C021C0F8018081F0
S1130C4089830E5F1F4F88248394912C530113C012
S1130C502801F2E04F0E511CF801A080B18036FE4D
S1130C6003C0692D70E002C06FEF7FEFC5010E94E1
S1130C707D074C018201F32DFF773F2E16C028011A
S1130C8022E0420E511CF801A080B18036FE03C060
S1130C90692D70E002C06FEF7FEFC5010E947207FB
S1130CA04C01F32DF0683F2E820133FC1BC0822DD2
S1130CB090E088169906B0F4B60180E290E00E94B4
S1130CC088072A94F4CFF50137FC859137FE81918A
S1130CD05F01B60190E00E94880721102A9421E068
S1130CE0821A91088114910471F7E8C0843611F0D6
S1130CF0893641F5F80137FE07C060817181828130
S1130D0093810C5F1F4F08C060817181072E000C16
S1130D10880B990B0E5F1F4FF32DFF763F2E97FF25
S1130D2009C090958095709561957F4F8F4F9F4F27
S1130D30F0683F2E2AE030E0A3010E94C407882E09
S1130D40861845C0853731F4232D2F7EB22E2AE034
S1130D5030E025C0932D997FB92E8F36C1F018F459
S1130D60883579F0B5C0803719F0883721F0B0C0E4
S1130D70E92FE061BE2EB4FE0DC0FB2DF460BF2E42
S1130D8009C034FE0AC0292F2660B22E06C028E00E
S1130D9030E005C020E130E002C020E132E0F8019B
S1130DA0B7FE07C060817181828193810C5F1F4F00
S1130DB006C06081718180E090E00E5F1F4FA30147
S1130DC00E94C407882E8618FB2DFF773F2E36FE1F
S1130DD00DC0232D2E7FA22E891458F434FE0BC08F
S1130DE032FC09C0832D8E7EA82E05C0B82CA32CFE
S1130DF003C0B82C01C0B92CA4FE0FC0FE01E80D3D
S1130E00F11D8081803321F49A2D997EA92E09C089
S1130E10A2FE06C0B394B39404C08A2D867809F068
S1130E20B394A3FC11C0A0FE06C0B21488F4280C2D
S1130E30922C9B180EC0B21460F4B60180E290E0CC
S1130E400E948807B394F7CFB21418F42B1802C089
S1130E50982C212CA4FE10C0B60180E390E00E94DF
S1130E608807A2FE17C0A1FC03C088E790E002C077
S1130E7088E590E0B6010CC08A2D867859F0A1FE71
S1130E8002C08BE201C080E2A7FC8DE2B60190E0D3
S1130E900E948807891438F4B60180E390E00E9428
S1130EA088079A94F7CF8A94F301E80DF11D8081A5
S1130EB0B60190E00E9488078110F5CF222009F442
S1130EC042CEB60180E290E00E9488072A94F6CFD1
S1130ED0F6018681978102C08FEF9FEF2B96E2E1A6
S1130EE00C943E08FC010590615070400110D8F745
S1130EF0809590958E0F9F1F0895FC01615070405E
S1130F0001900110D8F7809590958E0F9F1F08953A
S1130F100F931F93CF93DF93FB01238121FD03C024
S1130F208FEF9FEF2CC022FF16C04681578124818A
S1130F3035814217530744F4A081B1819D012F5F8D
S1130F403F4F318320838C93268137812F5F3F4F1E
S1130F503783268314C08B01EC01FB010084F185E7
S1130F60E02D0995892BE1F6D80116968D919C9177
S1130F701797019617969C938E931697CE01DF913F
S1130F80CF911F910F910895FA01AA27283051F1AA
S1130F90203181F1E8946F936E7F6E5F7F4F8F4FA6
S1130FA09F4FAF4FB1E03ED0B4E03CD0670F781F05
S1130FB0891F9A1FA11D680F791F8A1F911DA11DEA
S1130FC06A0F711D811D911DA11D20D009F4689423
S1130FD03F912AE0269F11243019305D3193DEF6CB
S1130FE0CF010895462F4770405D4193B3E00FD081
S1130FF0C9F7F6CF462F4F70405D4A3318F0495D6C
S113100031FD4052419302D0A9F7EACFB4E0A6954E
S11310109795879577956795BA95C9F70097610570
S1131020710508959B01AC010A2E069457954795C6
S113103037952795BA95C9F7620F731F841F951FBB
S1131040A01D08952F923F924F925F926F927F92CC
S11310508F929F92AF92BF92CF92DF92EF92FF92C4
S11310600F931F93CF93DF93CDB7DEB7CA1BDB0B70
S11310700FB6F894DEBF0FBECDBF09942A88398815
S113108048885F846E847D848C849B84AA84B9841C
S1131090C884DF80EE80FD800C811B81AA81B98128
S11310A0CE0FD11D0FB6F894DEBF0FBECDBFED013C
S10910B00895F894FFCF3F
S11310B620456E74657220626C6F636B20233A2040
S11310C6002F6E20456E74657220626C6F636B2010
S11310D6233A200025702000307825342E345820F9
S10D10E6200025322E3258200000AD
S9030000FC
